{
  "_format": "hh-sol-artifact-1",
  "contractName": "GovernanceToken",
  "sourceName": "contracts/GovernanceToken.sol",
  "abi": [
    {
      "inputs": [],
      "stateMutability": "nonpayable",
      "type": "constructor"
    },
    {
      "anonymous": false,
      "inputs": [
        {
          "indexed": true,
          "internalType": "address",
          "name": "owner",
          "type": "address"
        },
        {
          "indexed": true,
          "internalType": "address",
          "name": "spender",
          "type": "address"
        },
        {
          "indexed": false,
          "internalType": "uint256",
          "name": "value",
          "type": "uint256"
        }
      ],
      "name": "Approval",
      "type": "event"
    },
    {
      "anonymous": false,
      "inputs": [
        {
          "indexed": true,
          "internalType": "address",
          "name": "delegator",
          "type": "address"
        },
        {
          "indexed": true,
          "internalType": "address",
          "name": "fromDelegate",
          "type": "address"
        },
        {
          "indexed": true,
          "internalType": "address",
          "name": "toDelegate",
          "type": "address"
        }
      ],
      "name": "DelegateChanged",
      "type": "event"
    },
    {
      "anonymous": false,
      "inputs": [
        {
          "indexed": true,
          "internalType": "address",
          "name": "delegate",
          "type": "address"
        },
        {
          "indexed": false,
          "internalType": "uint256",
          "name": "previousBalance",
          "type": "uint256"
        },
        {
          "indexed": false,
          "internalType": "uint256",
          "name": "newBalance",
          "type": "uint256"
        }
      ],
      "name": "DelegateVotesChanged",
      "type": "event"
    },
    {
      "anonymous": false,
      "inputs": [
        {
          "indexed": true,
          "internalType": "address",
          "name": "from",
          "type": "address"
        },
        {
          "indexed": true,
          "internalType": "address",
          "name": "to",
          "type": "address"
        },
        {
          "indexed": false,
          "internalType": "uint256",
          "name": "value",
          "type": "uint256"
        }
      ],
      "name": "Transfer",
      "type": "event"
    },
    {
      "inputs": [],
      "name": "DOMAIN_SEPARATOR",
      "outputs": [
        {
          "internalType": "bytes32",
          "name": "",
          "type": "bytes32"
        }
      ],
      "stateMutability": "view",
      "type": "function"
    },
    {
      "inputs": [
        {
          "internalType": "address",
          "name": "owner",
          "type": "address"
        },
        {
          "internalType": "address",
          "name": "spender",
          "type": "address"
        }
      ],
      "name": "allowance",
      "outputs": [
        {
          "internalType": "uint256",
          "name": "",
          "type": "uint256"
        }
      ],
      "stateMutability": "view",
      "type": "function"
    },
    {
      "inputs": [
        {
          "internalType": "address",
          "name": "spender",
          "type": "address"
        },
        {
          "internalType": "uint256",
          "name": "amount",
          "type": "uint256"
        }
      ],
      "name": "approve",
      "outputs": [
        {
          "internalType": "bool",
          "name": "",
          "type": "bool"
        }
      ],
      "stateMutability": "nonpayable",
      "type": "function"
    },
    {
      "inputs": [
        {
          "internalType": "address",
          "name": "account",
          "type": "address"
        }
      ],
      "name": "balanceOf",
      "outputs": [
        {
          "internalType": "uint256",
          "name": "",
          "type": "uint256"
        }
      ],
      "stateMutability": "view",
      "type": "function"
    },
    {
      "inputs": [
        {
          "internalType": "address",
          "name": "account",
          "type": "address"
        },
        {
          "internalType": "uint32",
          "name": "pos",
          "type": "uint32"
        }
      ],
      "name": "checkpoints",
      "outputs": [
        {
          "components": [
            {
              "internalType": "uint32",
              "name": "fromBlock",
              "type": "uint32"
            },
            {
              "internalType": "uint224",
              "name": "votes",
              "type": "uint224"
            }
          ],
          "internalType": "struct ERC20Votes.Checkpoint",
          "name": "",
          "type": "tuple"
        }
      ],
      "stateMutability": "view",
      "type": "function"
    },
    {
      "inputs": [],
      "name": "decimals",
      "outputs": [
        {
          "internalType": "uint8",
          "name": "",
          "type": "uint8"
        }
      ],
      "stateMutability": "view",
      "type": "function"
    },
    {
      "inputs": [
        {
          "internalType": "address",
          "name": "spender",
          "type": "address"
        },
        {
          "internalType": "uint256",
          "name": "subtractedValue",
          "type": "uint256"
        }
      ],
      "name": "decreaseAllowance",
      "outputs": [
        {
          "internalType": "bool",
          "name": "",
          "type": "bool"
        }
      ],
      "stateMutability": "nonpayable",
      "type": "function"
    },
    {
      "inputs": [
        {
          "internalType": "address",
          "name": "delegatee",
          "type": "address"
        }
      ],
      "name": "delegate",
      "outputs": [],
      "stateMutability": "nonpayable",
      "type": "function"
    },
    {
      "inputs": [
        {
          "internalType": "address",
          "name": "delegatee",
          "type": "address"
        },
        {
          "internalType": "uint256",
          "name": "nonce",
          "type": "uint256"
        },
        {
          "internalType": "uint256",
          "name": "expiry",
          "type": "uint256"
        },
        {
          "internalType": "uint8",
          "name": "v",
          "type": "uint8"
        },
        {
          "internalType": "bytes32",
          "name": "r",
          "type": "bytes32"
        },
        {
          "internalType": "bytes32",
          "name": "s",
          "type": "bytes32"
        }
      ],
      "name": "delegateBySig",
      "outputs": [],
      "stateMutability": "nonpayable",
      "type": "function"
    },
    {
      "inputs": [
        {
          "internalType": "address",
          "name": "account",
          "type": "address"
        }
      ],
      "name": "delegates",
      "outputs": [
        {
          "internalType": "address",
          "name": "",
          "type": "address"
        }
      ],
      "stateMutability": "view",
      "type": "function"
    },
    {
      "inputs": [
        {
          "internalType": "uint256",
          "name": "blockNumber",
          "type": "uint256"
        }
      ],
      "name": "getPastTotalSupply",
      "outputs": [
        {
          "internalType": "uint256",
          "name": "",
          "type": "uint256"
        }
      ],
      "stateMutability": "view",
      "type": "function"
    },
    {
      "inputs": [
        {
          "internalType": "address",
          "name": "account",
          "type": "address"
        },
        {
          "internalType": "uint256",
          "name": "blockNumber",
          "type": "uint256"
        }
      ],
      "name": "getPastVotes",
      "outputs": [
        {
          "internalType": "uint256",
          "name": "",
          "type": "uint256"
        }
      ],
      "stateMutability": "view",
      "type": "function"
    },
    {
      "inputs": [
        {
          "internalType": "address",
          "name": "account",
          "type": "address"
        }
      ],
      "name": "getVotes",
      "outputs": [
        {
          "internalType": "uint256",
          "name": "",
          "type": "uint256"
        }
      ],
      "stateMutability": "view",
      "type": "function"
    },
    {
      "inputs": [
        {
          "internalType": "address",
          "name": "spender",
          "type": "address"
        },
        {
          "internalType": "uint256",
          "name": "addedValue",
          "type": "uint256"
        }
      ],
      "name": "increaseAllowance",
      "outputs": [
        {
          "internalType": "bool",
          "name": "",
          "type": "bool"
        }
      ],
      "stateMutability": "nonpayable",
      "type": "function"
    },
    {
      "inputs": [
        {
          "internalType": "uint256",
          "name": "_amount",
          "type": "uint256"
        }
      ],
      "name": "mintTokens",
      "outputs": [],
      "stateMutability": "nonpayable",
      "type": "function"
    },
    {
      "inputs": [],
      "name": "name",
      "outputs": [
        {
          "internalType": "string",
          "name": "",
          "type": "string"
        }
      ],
      "stateMutability": "view",
      "type": "function"
    },
    {
      "inputs": [
        {
          "internalType": "address",
          "name": "owner",
          "type": "address"
        }
      ],
      "name": "nonces",
      "outputs": [
        {
          "internalType": "uint256",
          "name": "",
          "type": "uint256"
        }
      ],
      "stateMutability": "view",
      "type": "function"
    },
    {
      "inputs": [
        {
          "internalType": "address",
          "name": "account",
          "type": "address"
        }
      ],
      "name": "numCheckpoints",
      "outputs": [
        {
          "internalType": "uint32",
          "name": "",
          "type": "uint32"
        }
      ],
      "stateMutability": "view",
      "type": "function"
    },
    {
      "inputs": [
        {
          "internalType": "address",
          "name": "owner",
          "type": "address"
        },
        {
          "internalType": "address",
          "name": "spender",
          "type": "address"
        },
        {
          "internalType": "uint256",
          "name": "value",
          "type": "uint256"
        },
        {
          "internalType": "uint256",
          "name": "deadline",
          "type": "uint256"
        },
        {
          "internalType": "uint8",
          "name": "v",
          "type": "uint8"
        },
        {
          "internalType": "bytes32",
          "name": "r",
          "type": "bytes32"
        },
        {
          "internalType": "bytes32",
          "name": "s",
          "type": "bytes32"
        }
      ],
      "name": "permit",
      "outputs": [],
      "stateMutability": "nonpayable",
      "type": "function"
    },
    {
      "inputs": [],
      "name": "s_maxSupply",
      "outputs": [
        {
          "internalType": "uint256",
          "name": "",
          "type": "uint256"
        }
      ],
      "stateMutability": "view",
      "type": "function"
    },
    {
      "inputs": [],
      "name": "symbol",
      "outputs": [
        {
          "internalType": "string",
          "name": "",
          "type": "string"
        }
      ],
      "stateMutability": "view",
      "type": "function"
    },
    {
      "inputs": [],
      "name": "totalSupply",
      "outputs": [
        {
          "internalType": "uint256",
          "name": "",
          "type": "uint256"
        }
      ],
      "stateMutability": "view",
      "type": "function"
    },
    {
      "inputs": [
        {
          "internalType": "address",
          "name": "to",
          "type": "address"
        },
        {
          "internalType": "uint256",
          "name": "amount",
          "type": "uint256"
        }
      ],
      "name": "transfer",
      "outputs": [
        {
          "internalType": "bool",
          "name": "",
          "type": "bool"
        }
      ],
      "stateMutability": "nonpayable",
      "type": "function"
    },
    {
      "inputs": [
        {
          "internalType": "address",
          "name": "from",
          "type": "address"
        },
        {
          "internalType": "address",
          "name": "to",
          "type": "address"
        },
        {
          "internalType": "uint256",
          "name": "amount",
          "type": "uint256"
        }
      ],
      "name": "transferFrom",
      "outputs": [
        {
          "internalType": "bool",
          "name": "",
          "type": "bool"
        }
      ],
      "stateMutability": "nonpayable",
      "type": "function"
    }
  ],
  "bytecode": "0x610140604052600a80553480156200001657600080fd5b506040518060400160405280600f81526020016e23b7bb32b93730b731b2aa37b5b2b760891b81525080604051806040016040528060018152602001603160f81b8152506040518060400160405280600f81526020016e23b7bb32b93730b731b2aa37b5b2b760891b8152506040518060400160405280600281526020016111d560f21b8152508160039080519060200190620000b592919062000167565b508051620000cb90600490602084019062000167565b5050825160208085019190912083518483012060e08290526101008190524660a0818152604080517f8b73c3c69bb8fe3d512ecc4cf759cc79239f7b179b0ffacaa9a75d522b39400f81880181905281830187905260608201869052608082019490945230818401528151808203909301835260c0019052805194019390932091935091906080523060c05261012052506200024a9350505050565b82805462000175906200020d565b90600052602060002090601f016020900481019282620001995760008555620001e4565b82601f10620001b457805160ff1916838001178555620001e4565b82800160010185558215620001e4579182015b82811115620001e4578251825591602001919060010190620001c7565b50620001f2929150620001f6565b5090565b5b80821115620001f25760008155600101620001f7565b600181811c908216806200022257607f821691505b602082108114156200024457634e487b7160e01b600052602260045260246000fd5b50919050565b60805160a05160c05160e0516101005161012051611c7f6200029a6000396000610e9b01526000610eea01526000610ec501526000610e1e01526000610e4801526000610e720152611c7f6000f3fe608060405234801561001057600080fd5b50600436106101585760003560e01c806370a08231116100c3578063a457c2d71161007c578063a457c2d714610307578063a9059cbb1461031a578063c3cda5201461032d578063d505accf14610340578063dd62ed3e14610353578063f1127ed81461036657600080fd5b806370a082311461028a5780637ecebe00146102b35780638e539e8c146102c657806395d89b41146102d957806397304ced146102e15780639ab24eb0146102f457600080fd5b8063395093511161011557806339509351146101da5780633a46b1a8146101ed578063587cde1e146102005780635c19a95c146102445780635d641847146102595780636fcfff451461026257600080fd5b806306fdde031461015d578063095ea7b31461017b57806318160ddd1461019e57806323b872dd146101b0578063313ce567146101c35780633644e515146101d2575b600080fd5b6101656103a3565b6040516101729190611930565b60405180910390f35b61018e6101893660046119a1565b610435565b6040519015158152602001610172565b6002545b604051908152602001610172565b61018e6101be3660046119cb565b61044d565b60405160128152602001610172565b6101a2610471565b61018e6101e83660046119a1565b610480565b6101a26101fb3660046119a1565b6104a2565b61022c61020e366004611a07565b6001600160a01b039081166000908152600760205260409020541690565b6040516001600160a01b039091168152602001610172565b610257610252366004611a07565b610521565b005b6101a2600a5481565b610275610270366004611a07565b61052e565b60405163ffffffff9091168152602001610172565b6101a2610298366004611a07565b6001600160a01b031660009081526020819052604090205490565b6101a26102c1366004611a07565b610556565b6101a26102d4366004611a22565b610574565b6101656105d0565b6102576102ef366004611a22565b6105df565b6101a2610302366004611a07565b610646565b61018e6103153660046119a1565b6106cd565b61018e6103283660046119a1565b610748565b61025761033b366004611a4c565b610756565b61025761034e366004611aa4565b61088c565b6101a2610361366004611b0e565b6109f0565b610379610374366004611b41565b610a1b565b60408051825163ffffffff1681526020928301516001600160e01b03169281019290925201610172565b6060600380546103b290611b81565b80601f01602080910402602001604051908101604052809291908181526020018280546103de90611b81565b801561042b5780601f106104005761010080835404028352916020019161042b565b820191906000526020600020905b81548152906001019060200180831161040e57829003601f168201915b5050505050905090565b600033610443818585610a9f565b5060019392505050565b60003361045b858285610bc3565b610466858585610c3d565b506001949350505050565b600061047b610e11565b905090565b60003361044381858561049383836109f0565b61049d9190611bcc565b610a9f565b60004382106104f85760405162461bcd60e51b815260206004820152601f60248201527f4552433230566f7465733a20626c6f636b206e6f7420796574206d696e65640060448201526064015b60405180910390fd5b6001600160a01b038316600090815260086020526040902061051a9083610f38565b9392505050565b61052b3382610ff5565b50565b6001600160a01b0381166000908152600860205260408120546105509061106e565b92915050565b6001600160a01b038116600090815260056020526040812054610550565b60004382106105c55760405162461bcd60e51b815260206004820152601f60248201527f4552433230566f7465733a20626c6f636b206e6f7420796574206d696e65640060448201526064016104ef565b610550600983610f38565b6060600480546103b290611b81565b336000908152602081905260409020541561063c5760405162461bcd60e51b815260206004820152601b60248201527f4f6e65206d696e74207065722077616c6c657420616c6c6f776564000000000060448201526064016104ef565b61052b33826110d7565b6001600160a01b03811660009081526008602052604081205480156106ba576001600160a01b0383166000908152600860205260409020610688600183611be4565b8154811061069857610698611bfb565b60009182526020909120015464010000000090046001600160e01b03166106bd565b60005b6001600160e01b03169392505050565b600033816106db82866109f0565b90508381101561073b5760405162461bcd60e51b815260206004820152602560248201527f45524332303a2064656372656173656420616c6c6f77616e63652062656c6f77604482015264207a65726f60d81b60648201526084016104ef565b6104668286868403610a9f565b600033610443818585610c3d565b834211156107a65760405162461bcd60e51b815260206004820152601d60248201527f4552433230566f7465733a207369676e6174757265206578706972656400000060448201526064016104ef565b604080517fe48329057bfd03d55e49b547132e39cffd9c1820ad7b9d4c5307691425d15adf60208201526001600160a01b038816918101919091526060810186905260808101859052600090610820906108189060a001604051602081830303815290604052805190602001206110e5565b858585611133565b905061082b8161115b565b86146108795760405162461bcd60e51b815260206004820152601960248201527f4552433230566f7465733a20696e76616c6964206e6f6e63650000000000000060448201526064016104ef565b6108838188610ff5565b50505050505050565b834211156108dc5760405162461bcd60e51b815260206004820152601d60248201527f45524332305065726d69743a206578706972656420646561646c696e6500000060448201526064016104ef565b60007f6e71edae12b1b97f4d1f60370fef10105fa2faae0126114a169c64845d6126c988888861090b8c61115b565b6040805160208101969096526001600160a01b0394851690860152929091166060840152608083015260a082015260c0810186905260e0016040516020818303038152906040528051906020012090506000610966826110e5565b9050600061097682878787611133565b9050896001600160a01b0316816001600160a01b0316146109d95760405162461bcd60e51b815260206004820152601e60248201527f45524332305065726d69743a20696e76616c6964207369676e6174757265000060448201526064016104ef565b6109e48a8a8a610a9f565b50505050505050505050565b6001600160a01b03918216600090815260016020908152604080832093909416825291909152205490565b60408051808201909152600080825260208201526001600160a01b0383166000908152600860205260409020805463ffffffff8416908110610a5f57610a5f611bfb565b60009182526020918290206040805180820190915291015463ffffffff8116825264010000000090046001600160e01b0316918101919091529392505050565b6001600160a01b038316610b015760405162461bcd60e51b8152602060048201526024808201527f45524332303a20617070726f76652066726f6d20746865207a65726f206164646044820152637265737360e01b60648201526084016104ef565b6001600160a01b038216610b625760405162461bcd60e51b815260206004820152602260248201527f45524332303a20617070726f766520746f20746865207a65726f206164647265604482015261737360f01b60648201526084016104ef565b6001600160a01b0383811660008181526001602090815260408083209487168084529482529182902085905590518481527f8c5be1e5ebec7d5bd14f71427d1e84f3dd0314c0f7b2291e5b200ac8c7c3b925910160405180910390a3505050565b6000610bcf84846109f0565b90506000198114610c375781811015610c2a5760405162461bcd60e51b815260206004820152601d60248201527f45524332303a20696e73756666696369656e7420616c6c6f77616e636500000060448201526064016104ef565b610c378484848403610a9f565b50505050565b6001600160a01b038316610ca15760405162461bcd60e51b815260206004820152602560248201527f45524332303a207472616e736665722066726f6d20746865207a65726f206164604482015264647265737360d81b60648201526084016104ef565b6001600160a01b038216610d035760405162461bcd60e51b815260206004820152602360248201527f45524332303a207472616e7366657220746f20746865207a65726f206164647260448201526265737360e81b60648201526084016104ef565b6001600160a01b03831660009081526020819052604090205481811015610d7b5760405162461bcd60e51b815260206004820152602660248201527f45524332303a207472616e7366657220616d6f756e7420657863656564732062604482015265616c616e636560d01b60648201526084016104ef565b6001600160a01b03808516600090815260208190526040808220858503905591851681529081208054849290610db2908490611bcc565b92505081905550826001600160a01b0316846001600160a01b03167fddf252ad1be2c89b69c2b068fc378daa952ba7f163c4a11628f55a4df523b3ef84604051610dfe91815260200190565b60405180910390a3610c37848484611188565b6000306001600160a01b037f000000000000000000000000000000000000000000000000000000000000000016148015610e6a57507f000000000000000000000000000000000000000000000000000000000000000046145b15610e9457507f000000000000000000000000000000000000000000000000000000000000000090565b50604080517f00000000000000000000000000000000000000000000000000000000000000006020808301919091527f0000000000000000000000000000000000000000000000000000000000000000828401527f000000000000000000000000000000000000000000000000000000000000000060608301524660808301523060a0808401919091528351808403909101815260c0909201909252805191012090565b8154600090815b81811015610f9c576000610f538284611193565b905084868281548110610f6857610f68611bfb565b60009182526020909120015463ffffffff161115610f8857809250610f96565b610f93816001611bcc565b91505b50610f3f565b8115610fe05784610fae600184611be4565b81548110610fbe57610fbe611bfb565b60009182526020909120015464010000000090046001600160e01b0316610fe3565b60005b6001600160e01b031695945050505050565b6001600160a01b038281166000818152600760208181526040808420805485845282862054949093528787166001600160a01b03198416811790915590519190951694919391928592917f3134e8a2e6d97e929a7e54011ea5485d7d196dd5f0ba4d4ef95803e8e3fc257f9190a4610c378284836111ae565b600063ffffffff8211156110d35760405162461bcd60e51b815260206004820152602660248201527f53616665436173743a2076616c756520646f65736e27742066697420696e203360448201526532206269747360d01b60648201526084016104ef565b5090565b6110e182826112eb565b5050565b60006105506110f2610e11565b8360405161190160f01b6020820152602281018390526042810182905260009060620160405160208183030381529060405280519060200120905092915050565b600080600061114487878787611375565b9150915061115181611462565b5095945050505050565b6001600160a01b03811660009081526005602052604090208054600181018255905b50919050565b505050565b61118383838361161d565b60006111a26002848418611c11565b61051a90848416611bcc565b816001600160a01b0316836001600160a01b0316141580156111d05750600081115b15611183576001600160a01b0383161561125e576001600160a01b0383166000908152600860205260408120819061120b9061164f8561165b565b91509150846001600160a01b03167fdec2bacdd2f05b59de34da9b523dff8be42e5e38e818c82fdb0bae774387a7248383604051611253929190918252602082015260400190565b60405180910390a250505b6001600160a01b03821615611183576001600160a01b03821660009081526008602052604081208190611294906117d48561165b565b91509150836001600160a01b03167fdec2bacdd2f05b59de34da9b523dff8be42e5e38e818c82fdb0bae774387a72483836040516112dc929190918252602082015260400190565b60405180910390a25050505050565b6112f582826117e0565b6002546001600160e01b0310156113675760405162461bcd60e51b815260206004820152603060248201527f4552433230566f7465733a20746f74616c20737570706c79207269736b73206f60448201526f766572666c6f77696e6720766f74657360801b60648201526084016104ef565b610c3760096117d48361165b565b6000807f7fffffffffffffffffffffffffffffff5d576e7357a4501ddfe92f46681b20a08311156113ac5750600090506003611459565b8460ff16601b141580156113c457508460ff16601c14155b156113d55750600090506004611459565b6040805160008082526020820180845289905260ff881692820192909252606081018690526080810185905260019060a0016020604051602081039080840390855afa158015611429573d6000803e3d6000fd5b5050604051601f1901519150506001600160a01b03811661145257600060019250925050611459565b9150600090505b94509492505050565b600081600481111561147657611476611c33565b141561147f5750565b600181600481111561149357611493611c33565b14156114e15760405162461bcd60e51b815260206004820152601860248201527f45434453413a20696e76616c6964207369676e6174757265000000000000000060448201526064016104ef565b60028160048111156114f5576114f5611c33565b14156115435760405162461bcd60e51b815260206004820152601f60248201527f45434453413a20696e76616c6964207369676e6174757265206c656e6774680060448201526064016104ef565b600381600481111561155757611557611c33565b14156115b05760405162461bcd60e51b815260206004820152602260248201527f45434453413a20696e76616c6964207369676e6174757265202773272076616c604482015261756560f01b60648201526084016104ef565b60048160048111156115c4576115c4611c33565b141561052b5760405162461bcd60e51b815260206004820152602260248201527f45434453413a20696e76616c6964207369676e6174757265202776272076616c604482015261756560f01b60648201526084016104ef565b6001600160a01b03838116600090815260076020526040808220548584168352912054611183929182169116836111ae565b600061051a8284611be4565b8254600090819080156116a65785611674600183611be4565b8154811061168457611684611bfb565b60009182526020909120015464010000000090046001600160e01b03166116a9565b60005b6001600160e01b031692506116c283858763ffffffff16565b9150600081118015611700575043866116dc600184611be4565b815481106116ec576116ec611bfb565b60009182526020909120015463ffffffff16145b156117605761170e826118c7565b8661171a600184611be4565b8154811061172a5761172a611bfb565b9060005260206000200160000160046101000a8154816001600160e01b0302191690836001600160e01b031602179055506117cb565b8560405180604001604052806117754361106e565b63ffffffff168152602001611789856118c7565b6001600160e01b0390811690915282546001810184556000938452602093849020835194909301519091166401000000000263ffffffff909316929092179101555b50935093915050565b600061051a8284611bcc565b6001600160a01b0382166118365760405162461bcd60e51b815260206004820152601f60248201527f45524332303a206d696e7420746f20746865207a65726f20616464726573730060448201526064016104ef565b80600260008282546118489190611bcc565b90915550506001600160a01b03821660009081526020819052604081208054839290611875908490611bcc565b90915550506040518181526001600160a01b038316906000907fddf252ad1be2c89b69c2b068fc378daa952ba7f163c4a11628f55a4df523b3ef9060200160405180910390a36110e160008383611188565b60006001600160e01b038211156110d35760405162461bcd60e51b815260206004820152602760248201527f53616665436173743a2076616c756520646f65736e27742066697420696e20326044820152663234206269747360c81b60648201526084016104ef565b600060208083528351808285015260005b8181101561195d57858101830151858201604001528201611941565b8181111561196f576000604083870101525b50601f01601f1916929092016040019392505050565b80356001600160a01b038116811461199c57600080fd5b919050565b600080604083850312156119b457600080fd5b6119bd83611985565b946020939093013593505050565b6000806000606084860312156119e057600080fd5b6119e984611985565b92506119f760208501611985565b9150604084013590509250925092565b600060208284031215611a1957600080fd5b61051a82611985565b600060208284031215611a3457600080fd5b5035919050565b803560ff8116811461199c57600080fd5b60008060008060008060c08789031215611a6557600080fd5b611a6e87611985565b95506020870135945060408701359350611a8a60608801611a3b565b92506080870135915060a087013590509295509295509295565b600080600080600080600060e0888a031215611abf57600080fd5b611ac888611985565b9650611ad660208901611985565b95506040880135945060608801359350611af260808901611a3b565b925060a0880135915060c0880135905092959891949750929550565b60008060408385031215611b2157600080fd5b611b2a83611985565b9150611b3860208401611985565b90509250929050565b60008060408385031215611b5457600080fd5b611b5d83611985565b9150602083013563ffffffff81168114611b7657600080fd5b809150509250929050565b600181811c90821680611b9557607f821691505b6020821081141561117d57634e487b7160e01b600052602260045260246000fd5b634e487b7160e01b600052601160045260246000fd5b60008219821115611bdf57611bdf611bb6565b500190565b600082821015611bf657611bf6611bb6565b500390565b634e487b7160e01b600052603260045260246000fd5b600082611c2e57634e487b7160e01b600052601260045260246000fd5b500490565b634e487b7160e01b600052602160045260246000fdfea26469706673582212204075bf66c113d025bad8c43c3e496adc62f279aef9516c5446dea2ad0e244d4a64736f6c63430008090033",
  "linkReferences": {},
  "deployedLinkReferences": {}
}